{"abi":[{"type":"constructor","inputs":[],"stateMutability":"nonpayable"},{"type":"function","name":"initializeCa","inputs":[{"name":"_nfts","type":"address[]","internalType":"address[]"},{"name":"_core","type":"address","internalType":"address"},{"name":"_rpCa","type":"address","internalType":"address"}],"outputs":[],"stateMutability":"nonpayable"},{"type":"function","name":"owner","inputs":[],"outputs":[{"name":"","type":"address","internalType":"address"}],"stateMutability":"view"},{"type":"function","name":"renounceOwnership","inputs":[],"outputs":[],"stateMutability":"nonpayable"},{"type":"function","name":"swap","inputs":[{"name":"target","type":"address","internalType":"address"},{"name":"data","type":"bytes","internalType":"bytes"}],"outputs":[],"stateMutability":"payable"},{"type":"function","name":"transferOwnership","inputs":[{"name":"newOwner","type":"address","internalType":"address"}],"outputs":[],"stateMutability":"nonpayable"},{"type":"event","name":"OwnershipTransferred","inputs":[{"name":"previousOwner","type":"address","indexed":true,"internalType":"address"},{"name":"newOwner","type":"address","indexed":true,"internalType":"address"}],"anonymous":false},{"type":"error","name":"OwnableInvalidOwner","inputs":[{"name":"owner","type":"address","internalType":"address"}]},{"type":"error","name":"OwnableUnauthorizedAccount","inputs":[{"name":"account","type":"address","internalType":"address"}]}],"bytecode":{"object":"0x60a060405260056002908155600355600660805234801561001f57600080fd5b50338061004657604051631e4fbdf760e01b81526000600482015260240160405180910390fd5b61004f81610055565b506100a5565b600080546001600160a01b038381166001600160a01b0319831681178455604051919092169283917f8be0079c531659141344cd1fd0a4f28419497f9722a3daafe3b4186f6b6457e09190a35050565b6080516109306100c0600039600061010301526109306000f3fe60806040526004361061004a5760003560e01c8063715018a61461004f5780638da5cb5b14610066578063bcb4939914610092578063e3547335146100b2578063f2fde38b146100c5575b600080fd5b34801561005b57600080fd5b506100646100e5565b005b34801561007257600080fd5b50600054604080516001600160a01b039092168252519081900360200190f35b34801561009e57600080fd5b506100646100ad36600461068e565b6100f9565b6100646100c0366004610775565b6101f4565b3480156100d157600080fd5b506100646100e03660046107fa565b6104b7565b6100ed6104f5565b6100f76000610522565b565b6101016104f5565b7f000000000000000000000000000000000000000000000000000000000000000060ff1683511061013157600080fd5b60005b83518160ff1610156101c4576000848260ff168151811061015757610157610817565b6020908102919091010151600480546001810182556000919091527f8a35acfbc15ff81a39ae7d344fd709f28e8600b4aa8c65c6b64bfe7fe36bd19b0180546001600160a01b0319166001600160a01b0390921691909117905550806101bc81610843565b915050610134565b50600180546001600160a01b039384166001600160a01b0319918216179091556005805492909316911617905550565b6001600160a01b0383161580159061020b57508015155b61021457600080fd5b6000836001600160a01b0316348484604051610231929190610862565b60006040518083038185875af1925050503d806000811461026e576040519150601f19603f3d011682016040523d82523d6000602084013e610273565b606091505b5050905080801561028e57506001546001600160a01b031615155b1561048a57600061029e33610572565b60015460405163507cd30f60e01b8152336004820152602481018390529192506001600160a01b03169063507cd30f906044016020604051808303816000875af11580156102f0573d6000803e3d6000fd5b505050506040513d601f19601f820116820180604052508101906103149190610872565b5060055460405163f4a8b19760e01b81523360048201526000916001600160a01b03169063f4a8b19790602401602060405180830381865afa15801561035e573d6000803e3d6000fd5b505050506040513d601f19601f820116820180604052508101906103829190610894565b90506001600160a01b038116158015906104055750600154604051630a2edb5560e21b81526001600160a01b038381166004830152909116906328bb6d5490602401602060405180830381865afa1580156103e1573d6000803e3d6000fd5b505050506040513d601f19601f820116820180604052508101906104059190610872565b156104835760015460405163507cd30f60e01b81526001600160a01b038381166004830152602482018590529091169063507cd30f906044016020604051808303816000875af115801561045d573d6000803e3d6000fd5b505050506040513d601f19601f820116820180604052508101906104819190610872565b505b50506104b1565b60405162461bcd60e51b815260206004820152600060248201526044015b60405180910390fd5b50505050565b6104bf6104f5565b6001600160a01b0381166104e957604051631e4fbdf760e01b8152600060048201526024016104a8565b6104f281610522565b50565b6000546001600160a01b031633146100f75760405163118cdaa760e01b81523360048201526024016104a8565b600080546001600160a01b038381166001600160a01b0319831681178455604051919092169283917f8be0079c531659141344cd1fd0a4f28419497f9722a3daafe3b4186f6b6457e09190a35050565b60008060005b60045460ff821610156106305760048160ff168154811061059b5761059b610817565b6000918252602090912001546040516370a0823160e01b81526001600160a01b038681166004830152909116906370a0823190602401602060405180830381865afa1580156105ee573d6000803e3d6000fd5b505050506040513d601f19601f8201168201806040525081019061061291906108b1565b61061c90836108ca565b91508061062881610843565b915050610578565b508060035461063f91906108e3565b60025461064c91906108ca565b9392505050565b634e487b7160e01b600052604160045260246000fd5b6001600160a01b03811681146104f257600080fd5b803561068981610669565b919050565b6000806000606084860312156106a357600080fd5b833567ffffffffffffffff808211156106bb57600080fd5b818601915086601f8301126106cf57600080fd5b81356020828211156106e3576106e3610653565b8160051b604051601f19603f8301168101818110868211171561070857610708610653565b60405292835281830193508481018201928a84111561072657600080fd5b948201945b8386101561074b5761073c8661067e565b8552948201949382019361072b565b975061075a905088820161067e565b95505050505061076c6040850161067e565b90509250925092565b60008060006040848603121561078a57600080fd5b833561079581610669565b9250602084013567ffffffffffffffff808211156107b257600080fd5b818601915086601f8301126107c657600080fd5b8135818111156107d557600080fd5b8760208285010111156107e757600080fd5b6020830194508093505050509250925092565b60006020828403121561080c57600080fd5b813561064c81610669565b634e487b7160e01b600052603260045260246000fd5b634e487b7160e01b600052601160045260246000fd5b600060ff821660ff81036108595761085961082d565b60010192915050565b8183823760009101908152919050565b60006020828403121561088457600080fd5b8151801515811461064c57600080fd5b6000602082840312156108a657600080fd5b815161064c81610669565b6000602082840312156108c357600080fd5b5051919050565b808201808211156108dd576108dd61082d565b92915050565b80820281158282048414176108dd576108dd61082d56fea2646970667358221220d5726f09ef9453639ef1f2bb47badd8314cb0623074f9d00e08749d552ba6adb64736f6c63430008140033","linkReferences":{}},"methodIdentifiers":{"initializeCa(address[],address,address)":"bcb49399","owner()":"8da5cb5b","renounceOwnership()":"715018a6","swap(address,bytes)":"e3547335","transferOwnership(address)":"f2fde38b"},"id":54}